:020000040800F2
:10000000000002206929000839270008412700085C
:100010004927000851270008592700080000000060
:100020000000000000000000000000006127000840
:100030006F270008000000007D2700088B270008BC
:10004000B9290008B9290008B9290008B929000808
:10005000B9290008B9290008B9290008B9290008F8
:10006000B9290008B9290008B9290008992700080A
:10007000AD270008C1270008D5270008E927000898
:10008000B9290008B9290008B9290008B9290008C8
:10009000B9290008B9290008B9290008B9290008B8
:1000A000B9290008B9290008B9290008B9290008A8
:1000B000B9290008B9290008B9290008B929000898
:1000C000B9290008B9290008B9290008B929000888
:1000D000B9290008B9290008B9290008B929000878
:1000E000B9290008B929000800000000B929000852
:1000F000B9290008B9290008B9290008B929000858
:10010000B9290008B9290008B9290008B929000847
:10011000B9290008B9290008B9290008B929000837
:10012000B9290008B9290008FD270008112800088E
:1001300025280008B9290008B9290008B9290008AC
:1001400000000000000000000000000000000000AF
:10015000B9290008B9290008B9290008B9290008F7
:10016000B9290008B9290008B9290008B9290008E7
:10017000B9290008B9290008B929000800000000C1
:10018000B9290008B9290008B9290008B9290008C7
:10019000B9290008B9290008B9290008B9290008B7
:1001A000B9290008B9290008B9290008B9290008A7
:1001B000B9290008B9290008B9290008B929000897
:1001C000B9290008B9290008B9290008B929000887
:1001D000B9290008B9290008B9290008B929000877
:1001E000B9290008B9290008B9290008B929000867
:1001F000B9290008B9290008B9290008B929000857
:10020000B9290008B9290008B9290008B929000846
:10021000B9290008B9290008B9290008B929000836
:10022000B9290008B9290008B92900080000000010
:10023000B9290008B929000800000000B929000800
:10024000B9290008B9290008B9290008B929000806
:10025000B9290008B9290008B9290008B9290008F6
:10026000B9290008B9290008B9290008B9290008E6
:10027000B9290008B9290008B929000800000000C0
:10028000B9290008B9290008B929000800000000B0
:0802900000000000B92900087C
:1002A00010B5054C237833B9044B13B10448AFF3B0
:1002B00000800123237010BDC80200200000000050
:1002C0002CEA020808B5034B1BB103490348AFF3FE
:1002D000008008BD00000000CC0200202CEA0208CB
:1002E00010F8012B11F8013B012A28BF9A42F7D0E0
:1002F000D01A70470000000000000000000000005D
:1003000001F0FF01102A2BDB10F0070F08D010F8C6
:10031000013B013A8B422DD010F0070F42B3F6D1CA
:10032000F0B441EA012141EA014122F007047FF0E3
:1003300000070023F0E80256083C85EA010586EA3A
:10034000010685FA47F5A3FA87F586FA47F6A5FA76
:1003500087F68EB9EED1F0BC01F0FF0102F0070282
:1003600032B110F8013B013A83EA010313B1F8D12D
:100370000020704701387047002D06BF354603380E
:10038000073815F0010F07D1013015F4807F02BF47
:10039000013015F4C03F0130F0BC0138704700BF98
:1003A000034613F8012B002AFBD1181A01387047B5
:1003B00081F0004102E000BF83F0004330B54FEA16
:1003C00041044FEA430594EA050F08BF90EA020F83
:1003D0001FBF54EA000C55EA020C7FEA645C7FEA16
:1003E000655C00F0E2804FEA5454D4EB5555B8BF39
:1003F0006D420CDD2C4480EA020281EA030382EAAA
:10040000000083EA010180EA020281EA0303362D3B
:1004100088BF30BD11F0004F4FEA01314FF4801C0E
:100420004CEA113102D0404261EB410113F0004F20
:100430004FEA03334CEA133302D0524263EB4303D7
:1004400094EA050F00F0A780A4F10104D5F1200E75
:100450000DDB02FA0EFC22FA05F2801841F10001D0
:1004600003FA0EF2801843FA05F359410EE0A5F1A4
:1004700020050EF1200E012A03FA0EFC28BF4CF0D5
:10048000020C43FA05F3C01851EBE37101F000458B
:1004900007D54FF0000EDCF1000C7EEB00006EEB98
:1004A0000101B1F5801F1BD3B1F5001F0CD3490822
:1004B0005FEA30004FEA3C0C04F101044FEA445279
:1004C00012F5800F80F09A80BCF1004F08BF5FEA00
:1004D000500C50F1000041EB045141EA050130BDE0
:1004E0005FEA4C0C404141EB0101013C28BFB1F5F2
:1004F000801FE9D291F0000F04BF01460020B1FA3D
:1005000081F308BF2033A3F10B03B3F120020CDA0F
:100510000C3208DD02F1140CC2F10C0201FA0CF0ED
:1005200021FA02F10CE002F11402D8BFC2F1200C52
:1005300001FA02F120FA0CFCDCBF41EA0C01904008
:10054000E41AA2BF01EB0451294330BD6FEA040451
:100550001F3C1CDA0C340EDC04F11404C4F120023C
:1005600020FA04F001FA02F340EA030021FA04F34E
:1005700045EA030130BDC4F10C04C4F1200220FAA5
:1005800002F001FA04F340EA0300294630BD21FAE3
:1005900004F0294630BD94F0000F83F4801306BFA9
:1005A00081F480110134013D4EE77FEA645C18BF9D
:1005B0007FEA655C29D094EA050F08BF90EA020F34
:1005C00005D054EA000C04BF1946104630BD91EA2C
:1005D000030F1EBF0021002030BD5FEA545C05D12F
:1005E0004000494128BF41F0004130BD14F580046E
:1005F0003CBF01F5801130BD01F0004545F0FE41E2
:1006000041F470014FF0000030BD7FEA645C1ABF16
:10061000194610467FEA655C1CBF0B46024650EA4D
:10062000013406BF52EA033591EA030F41F4002179
:1006300030BD00BF90F0000F04BF0021704730B5FF
:100640004FF4806404F132044FF000054FF00001D4
:1006500050E700BF90F0000F04BF0021704730B595
:100660004FF4806404F1320410F0004548BF40426A
:100670004FF000013EE700BF42004FEAE2014FEABF
:1006800031014FEA02701FBF12F07F4393F07F4F9A
:1006900081F06051704732F07F4208BF704793F09D
:1006A0007F4F04BF41F40021704730B54FF46074B0
:1006B00001F0004521F000411CE700BF50EA0102B3
:1006C00008BF704730B54FF000050AE050EA01025C
:1006D00008BF704730B511F0004502D5404261EBCC
:1006E00041014FF4806404F132045FEA915C3FF40D
:1006F000D8AE4FF003025FEADC0C18BF03325FEAAA
:10070000DC0C18BF033202EBDC02C2F1200300FA5A
:1007100003FC20FA02F001FA03FE40EA0E0021FA7F
:1007200002F11444BDE600BF7BB972B90029BEBF17
:1007300000204FF0004106E008BF00281CBF6FF00A
:1007400000414FF0FF3000F0EDB9ADF1080C6DE95C
:1007500004CE002909DB002B1ADB00F085F8DDF858
:1007600004E0DDE9022304B07047404261EB41013F
:10077000002B1BDB00F078F8DDF804E0DDE9022354
:1007800004B0404261EB4101524263EB43037047C6
:10079000524263EB430300F067F8DDF804E0DDE963
:1007A000022304B0404261EB41017047524263EBC7
:1007B000430300F059F8DDF804E0DDE9022304B05A
:1007C000524263EB4303704753B94AB9002908BF4B
:1007D00000281CBF4FF0FF314FF0FF3000F0A2B9EE
:1007E000ADF1080C6DE904CE00F03EF8DDF804E050
:1007F000DDE9022304B0704708B502460B4643EC1E
:10080000172BB5EEC07BF1EE10FA03D4BDE808401B
:1008100000F00AB8B1EE477B51EC170B00F004F87A
:10082000404261EB410108BD9FED0B6B41EC170BA2
:100830009FED0B5B27EE066BBCEEC66BB8EE464B2E
:10084000A4EE457BFCEEC77B16EE101A17EE900A5D
:10085000704700BFAFF30080000000000000F03DD3
:10086000000000000000F0412DE9F047089D0C4613
:10087000002B4ED194468C458646B2FA82F262D95C
:100880004AB1C2F12003914020FA03F30CFA02FCB2
:10089000194300FA02FE4FEA1C471FFA8CF6B1FB1F
:1008A000F7F44FEA1E4307FB141143EA014304FB2C
:1008B00006F199420AD91CEB030304F1FF3080F0E2
:1008C0001281994240F20F81023C6344591A1FFA87
:1008D0008EF3B1FBF7F007FB101143EA014300FB75
:1008E00006F69E420AD91CEB030300F1FF3180F0AB
:1008F000FC809E4240F2F980634402389B1B40EA30
:10090000044000211DB1D3400022C5E90032BDE8FA
:10091000F0878B4205D90DB1C5E9000100210846D9
:10092000F5E7B3FA83F1002946D1A34202D39042FE
:10093000C0F0F080861A64EB03030120002DE6D09E
:10094000C5E90063E3E7002A40F09080A1EB0C04C6
:100950004FEA1C481FFA8CF70121B4FBF8F64FEA66
:100960001E4308FB164443EA044307FB06F0984283
:1009700008D91CEB030306F1FF3402D2984200F2BF
:10098000CD8026461C1A1FFA8EF3B4FBF8F008FB44
:10099000104443EA044300FB07F79F4208D91CEBCD
:1009A000030300F1FF3402D29F4200F2B0802046E0
:1009B000DB1B40EA0640A5E7C1F120068B4022FA86
:1009C00006F71F4320FA06FC04FA01F343EA0C037E
:1009D000F44000FA01F8380C4FEA1349B4FBF0FE7A
:1009E0001FFA87FC00FB1E4449EA04440EFB0CF985
:1009F000A14502FA01F20AD93C190EF1FF3A80F042
:100A00008480A14540F28180AEF1020E3C44A4EB0B
:100A100009041FFA83F9B4FBF0F300FB134449EA1D
:100A2000044403FB0CFCA44507D93C1903F1FF3037
:100A300067D2A44565D9023B3C4443EA0E40A0FB83
:100A40000293A4EB0C049C42CE469C4651D34ED05C
:100A500055B1B8EB0E0364EB0C0404FA06F6CB4078
:100A60001E43CC40C5E90064002150E7C2F12003D9
:100A700020FA03F10CFA02FC24FA03F394400C432D
:100A80004FEA1C4800FA02FE1FFA8CF7B3FBF8F09D
:100A900008FB1031230C43EA014300FB07F19942A4
:100AA00008D91CEB030300F1FF362CD299422AD956
:100AB000023863445B1AA4B2B3FBF8F108FB1133AC
:100AC00044EA034401FB07F3A34208D91CEB0404E6
:100AD00001F1FF3613D2A34211D902396444E41A5A
:100AE00041EA004139E70446F0E6084606E7C84512
:100AF000AED2B9EB020E63EB070C0138A8E7314622
:100B0000EDE7034699E73046D4E7D6467FE76344EE
:100B100002384DE70646234608460FE7023E634487
:100B200030E700BF704700BF80B500AF274B5B695F
:100B300003F40033002B1BD1BFF34F8F00BFBFF373
:100B40006F8F00BF214B0022C3F85022BFF34F8F9D
:100B500000BFBFF36F8F00BF1C4B5B691B4A43F4A0
:100B600000335361BFF34F8F00BFBFF36F8F00E0BF
:100B700000BF01F023FF00F02BF800F0D7F800F0E1
:100B8000D5FE00F06BFE00F0FDFB00F01BFE00F058
:100B9000F5FC00F041FD00F0C3FD00F00BFA00F0A1
:100BA00009F900F091F900F079FA00F0A9FA00F0E3
:100BB0003DFB00F091FB00F093FC00F07BFD00F0AA
:100BC000DFFA10F035FB00BFFBE700BF00ED00E0EF
:100BD00080B59EB000AF07F12C034C2200211846CF
:100BE0002AF038FF07F10C032022002118462AF0D2
:100BF00031FF022007F006FE0023BB60484BDB6A92
:100C0000474A23F00103D362454BDB6A03F001033B
:100C1000BB60444B9B69434A43F440439361414B5F
:100C20009B6903F44043BB60BB6800BF3D4B9B69BD
:100C300003F40053B3F5005FF8D13B4BD3F8F43025
:100C4000394A43F00203C2F8F430374BD3F8F4309A
:100C500003F002037B607B6800233B60314B9B69A0
:100C6000304A43F4404393612E4B9B6903F4404365
:100C70003B602B4BDB6A2A4A43F00103D362284BCB
:100C8000DB6A03F001033B603B6800BF254B9B69B7
:100C900003F40053B3F5005FF8D10123FB624FF476
:100CA00080333B6302233B6502237B650123BB65E5
:100CB0007823FB6502233B6602237B660223BB6627
:100CC0000C23FB6600233B6700237B6707F12C03A3
:100CD000184607F0D1FD0346002B01D000F03EFF7F
:100CE0003F23FB6003233B6100237B610823BB613F
:100CF0004023FB6140233B624FF480637B624023CF
:100D0000BB6207F10C030421184608F00FFA0346F2
:100D1000002B01D000F022FF00BF7837BD4680BD18
:100D200000040058004802580044025880B5B0B092
:100D300000AF3B46C022002118462AF08BFE4FF43C
:100D400001224FF00003C7E900230223BB60902378
:100D5000FB6004233B6110237B610223BB61802382
:100D6000FB6100233B6200237B620223BB623623CC
:100D7000FB6202233B6302237B630323BB634FF4C9
:100D80000063FB6300233B6400237B644FF48053C8
:100D90003B664FF48033C7F8A4303B46184608F052
:100DA00051FD0346002B01D000F0D8FE00BFC03734
:100DB000BD4680BD80B58AB000AF07F11C0300229C
:100DC0001A605A609A603B4600221A605A609A6024
:100DD000DA601A615A619A61384B394A1A60374BA6
:100DE0000022DA60354B08221A61344B00221A7552
:100DF000324B00225A75314B01229A612F4B01224E
:100E00001A772E4B01221A622C4B4FF490625A62D1
:100E10002A4B4FF480629A62284B0322DA62274BF6
:100E20004FF480521A63254B00225A63234B002251
:100E300083F83820214B0122DA63204802F02EF992
:100E40000346002B01D000F089FE1C4B00225A60A3
:100E50001A4B00229A60194802F020F90346002B31
:100E600001D000F07BFE0023FB6107F11C03194653
:100E7000124803F045FB0346002B01D000F06EFE44
:100E8000104B3B6006237B600023BB6040F2FF7386
:100E9000FB6004233B6100237B6100237B763B46A0
:100EA0001946064802F0CCFB0346002B01D000F0A7
:100EB00055FE00BF2837BD4680BD00BFE4020020BC
:100EC000002002402000F01480B588B000AF3B1D28
:100ED00000221A605A609A60DA601A615A619A6157
:100EE000314B324A1A60304B0022DA602E4B082216
:100EF0001A612D4B00221A752B4B00225A752A4B72
:100F000001229A61284B01221A77274B01221A628B
:100F1000254B4FF490625A62234B4FF480629A62E1
:100F2000214B0322DA62204B4FF480521A631E4B8E
:100F300000225A631C4B002283F838201A4B0122EE
:100F4000DA63194802F0AAF80346002B01D000F03A
:100F500005FE154B00225A60134B00229A6012487E
:100F600002F09CF80346002B01D000F0F7FD104B77
:100F70007B600623BB600023FB6040F2FF733B6194
:100F800004237B610023BB6100237B773B1D194653
:100F9000054802F055FB0346002B01D000F0DEFDB2
:100FA00000BF2037BD4680BD48030020002102401D
:100FB0000800900C80B588B000AF3B1D00221A607D
:100FC0005A609A60DA601A615A619A61314B324A0A
:100FD0001A60304B00225A602E4B0022DA602D4BF3
:100FE00008221A612B4B00221A752A4B00225A75CF
:100FF000284B01229A61274B01221A77254B0122A7
:101000001A62244B4FF490625A62224B4FF4806272
:101010009A62204B0322DA621E4B4FF480521A630D
:101020001C4B00225A631B4B002283F83820194BBB
:101030000122DA63174802F031F80346002B01D091
:1010400000F08CFD134B00229A60124802F026F843
:101050000346002B01D000F081FD01237B600623B5
:10106000BB600023FB6040F2FF733B6104237B61A4
:101070000023BB6100237B773B1D1946054802F026
:10108000DFFA0346002B01D000F068FD00BF2037D7
:10109000BD4680BDAC0300200060025880B58AB018
:1010A00000AF3B1D2422002118462AF0D3FC124B2E
:1010B000124A1A60104803F089FC0346002B01D045
:1010C00000F04CFD00237B601623BB600023FB6017
:1010D00001233B6100237B613B1D0022194606482A
:1010E00003F096FC0346002B01D000F037FD00BF53
:1010F0002837BD4680BD00BF780500200074004041
:1011000080B500AF1B4B1C4A1A601A4B1B4A5A6031
:10111000184B00229A60174B0122DA60154B00220F
:101120001A61144B00225A61124B00229A61114B32
:101130000022DA610F4B00221A620E4807F02EFAE5
:101140000346002B01D000F009FD0021094807F0FB
:10115000C1FA0346002B01D000F000FD0021054834
:1011600007F003FB0346002B01D000F0F7FC00BFA3
:1011700080BD00BF04060020005C0040B1757030E7
:1011800080B500AF274B284A1A60264B4FF48002E7
:101190005A60244B00229A60224B0722DA60214BCE
:1011A00000221A611F4B00225A611E4B4FF08062D1
:1011B0009A611C4B4FF04052DA611A4B00221A62BE
:1011C000184B00225A62174B00229A62154B0022DC
:1011D000DA62144B4FF080425A63124B00229A633A
:1011E000104B0022DA630F4B00221A640D4B0022D1
:1011F0005A640C4B00229A640A4B0022DA64094BB1
:1012000000221A65074B00225A65064B00229A6598
:1012100004480BF015F80346002B01D000F09EFCAB
:1012200000BF80BD580600200038004080B500AFE8
:10123000274B284A1A60264B4FF480025A60244BF1
:1012400000229A60224B0722DA60214B00221A61A9
:101250001F4B00225A611E4B4FF000529A611C4BEB
:101260004FF00052DA611A4B00221A62184B00222A
:101270005A62174B00229A62154B0022DA62144B15
:101280004FF080425A63124B00229A63104B0022A7
:10129000DA630F4B00221A640D4B00225A640C4B88
:1012A00000229A640A4B0022DA64094B00221A6574
:1012B000074B00225A65064B00229A6504480AF043
:1012C000BFFF0346002B01D000F048FC00BF80BDEB
:1012D000E0060020003C004080B500AF274B284AC4
:1012E0001A60264B4FF480025A60244B00229A6009
:1012F000224B0722DA60214B00221A611F4B002289
:101300005A611E4B4FF000529A611C4B4FF0A042A5
:10131000DA611A4B00221A62184B00225A62174BEC
:1013200000229A62154B0022DA62144B4FF0804281
:101330005A63124B00229A63104B0022DA630F4B60
:1013400000221A640D4B00225A640C4B00229A644E
:101350000A4B0022DA64094B00221A65074B00226F
:101360005A65064B00229A6504480AF069FF034655
:10137000002B01D000F0F2FB00BF80BD6807002009
:101380000034014080B59AB000AF07F15803002245
:101390001A605A609A60DA6007F14C0300221A6002
:1013A0005A609A6007F1300300221A605A609A600E
:1013B000DA601A615A619A613B1D2C22002118469D
:1013C0002AF048FB444B454A1A60434B00225A60BE
:1013D000414B00229A60404B4FF6F572DA603E4B6B
:1013E00000221A613C4B00225A613B4B00229A6159
:1013F00039480BF020FB0346002B01D000F0AEFB78
:101400004FF48053BB6507F15803194632480BF07F
:1014100075FD0346002B01D000F0A0FB2E480BF019
:10142000F8FB0346002B01D000F098FB2023FB645F
:101430004FF400133B6500237B6507F14C0319460D
:1014400025480CF099FB0346002B01D000F086FBE9
:1014500060233B6300237B630023BB630023FB63A8
:1014600000233B6400237B640023BB6407F130034B
:101470000022194618480BF02DFC0346002B01D022
:1014800000F06CFB00237B600023BB600023FB604B
:1014900000233B6100237B614FF40053BB610023B9
:1014A000FB6100233B624FF000737B620023BB6251
:1014B0000023FB623B1D194607480CF0EBFB03467B
:1014C000002B01D000F04AFB034801F02BF800BFCD
:1014D0006837BD4680BD00BFF00700200000014016
:1014E00080B588B000AF07F1100300221A605A607F
:1014F0009A60DA603B1D00221A605A609A601E4BA7
:101500004FF080421A601C4B00225A601A4B002296
:101510009A60194B4FF0FF32DA60174B00221A61C4
:10152000154B00229A6114480BF085FA0346002BF4
:1015300001D000F013FB4FF480533B6107F110031F
:1015400019460D480BF0DAFC0346002B01D000F0E1
:1015500005FB00237B600023FB603B1D194606480A
:101560000CF00AFB0346002B01D000F0F7FA00BF95
:101570002037BD4680BD00BF3C08002080B588B044
:1015800000AF07F1100300221A605A609A60DA6017
:101590003B1D00221A605A609A601D4B1D4A1A605A
:1015A0001B4B00225A601A4B00229A60184BC7222C
:1015B000DA60174B00221A61154B00229A61144819
:1015C0000BF039FA0346002B01D000F0C7FA4FF4B4
:1015D00080533B6107F1100319460D480BF08EFC58
:1015E0000346002B01D000F0B9FA20237B600023D2
:1015F000FB603B1D194606480CF0BEFA0346002B63
:1016000001D000F0ABFA00BF2037BD4680BD00BF5F
:10161000880800200004004080B588B000AF07F1C2
:10162000100300221A605A609A60DA603B1D0022A3
:101630001A605A609A601D4B1D4A1A601B4B0122AA
:101640005A601A4B00229A60184B4FF0FF32DA6052
:10165000164B00221A61154B00229A6113480BF0B9
:10166000EAF90346002B01D000F078FA4FF48053DA
:101670003B6107F1100319460C480BF03FFC034691
:10168000002B01D000F06AFA20237B600023FB606E
:101690003B1D194605480CF06FFA0346002B01D09C
:1016A00000F05CFA00BF2037BD4680BDD4080020A2
:1016B000000C004080B584B000AF3B1D00221A60D2
:1016C0005A609A60144B154A1A60134B00225A60F4
:1016D000114B00229A60104B5922DA600E4B002207
:1016E0009A610D480BF0A7F90346002B01D000F0DA
:1016F00035FA20237B600023FB603B1D194606481A
:101700000CF03AFA0346002B01D000F027FA00BF94
:101710001037BD4680BD00BF2009002000100040EA
:1017200080B588B000AF07F10C0300221A605A6040
:101730009A60DA601A613B4600221A605A609A6029
:101740001E4B1F4A1A601D4B00225A601B4B002281
:101750009A601A4B4C22DA60184B00221A61174B20
:1017600000225A61154B00229A6114480BF063F96C
:101770000346002B01D000F0F1F90023FB600023A9
:101780003B6107F10C0319460C480BF0AFFC034614
:10179000002B01D000F0E2F950233B600023BB6036
:1017A0003B46194605480CF0E7F90346002B01D0EB
:1017B00000F0D4F900BF2037BD4680BD6C09002081
:1017C0000040014080B500AF224B234A1A60214BF4
:1017D0004FF4E1325A601F4B00229A601D4B0022E9
:1017E000DA601C4B00221A611A4B0C225A61194B09
:1017F00000229A61174B0022DA61164B00221A620E
:10180000144B00225A62134B00229A6211480CF0CA
:10181000BFFA0346002B01D000F0A0F900210D48CB
:101820000DF0C7FA0346002B01D000F097F9002114
:1018300008480DF0FCFA0346002B01D000F08EF9A9
:1018400004480DF07DFA0346002B01D000F086F924
:1018500000BF80BDA80A00200010014080B582B002
:1018600000AF314BD3F8D8302F4A43F00103C2F810
:10187000D8302D4BD3F8D83003F001037B607B6860
:10188000294BD3F8D830284A43F00203C2F8D830A5
:10189000254BD3F8D83003F002033B603B680022AD
:1018A00000210B2002F0E5FF0B2002F0FCFF0022DC
:1018B00000210C2002F0DDFF0C2002F0F4FF0022DA
:1018C00000210D2002F0D5FF0D2002F0ECFF0022D8
:1018D00000210E2002F0CDFF0E2002F0E4FF0022D6
:1018E00000210F2002F0C5FF0F2002F0DCFF0022D4
:1018F00000213A2002F0BDFF3A2002F0D4FF00227E
:1019000000213B2002F0B5FF3B2002F0CCFF00227B
:1019100000213C2002F0ADFF3C2002F0C4FF00BFDC
:101920000837BD4680BD00BF0044025880B58CB06A
:1019300000AF07F11C0300221A605A609A60DA6057
:101940001A61804BD3F8E0307E4A43F01003C2F8AE
:10195000E0307C4BD3F8E03003F01003BB61BB698F
:10196000784BD3F8E030774A43F00403C2F8E03014
:10197000744BD3F8E03003F004037B617B69714B57
:10198000D3F8E0306F4A43F08003C2F8E0306D4B8B
:10199000D3F8E03003F080033B613B69694BD3F837
:1019A000E030684A43F00103C2F8E030654BD3F8F9
:1019B000E03003F00103FB60FB68624BD3F8E030DA
:1019C000604A43F00203C2F8E0305E4BD3F8E030E7
:1019D00003F00203BB60BB685A4BD3F8E030594AAE
:1019E00043F00803C2F8E030564BD3F8E03003F080
:1019F00008037B607B6801220421534806F0B4FD94
:101A000001228021514806F0AFFD00224FF4007101
:101A10004F4806F0A9FD00224FF480714D4806F0B2
:101A2000A3FD00224FF400614B4806F09DFD01220A
:101A30000421474806F098FD00228021424806F024
:101A400093FD3323FB6100233B6200237B6207F19C
:101A50001C0319463F4806F0D7FB8723FB61002390
:101A60003B6200237B6207F11C0319463A4806F0EB
:101A7000CBFB0423FB6101233B6200237B62002339
:101A8000BB6207F11C0319462F4806F0BDFB8023FB
:101A9000FB6101233B6200237B620023BB6207F1F1
:101AA0001C031946294806F0AFFB4FF46053FB6155
:101AB00000233B6200237B6207F11C031946224886
:101AC00006F0A2FB4FF40173FB6101233B6200238C
:101AD0007B620023BB6207F11C0319461C4806F019
:101AE00093FB4FF48073FB6101233B6200237B6215
:101AF0000023BB6207F11C031946164806F084FB5D
:101B00004FF40063FB6101233B6200237B620023EF
:101B1000BB6207F11C0319460F4806F075FB8023D2
:101B2000FB6101233B6202237B620023BB6207F15E
:101B30001C031946044806F067FB00BF3037BD465A
:101B400080BD00BF00440258000402580010025833
:101B5000000C0258000802580000025880B400AF80
:101B600072B600BF00BFFDE780B582B000AF154B75
:101B7000D3F8F430134A43F00203C2F8F430114BA7
:101B8000D3F8F43003F002037B607B680D4BD3F88D
:101B9000F4300C4A43F40043C2F8F430094BD3F854
:101BA000F43003F400433B603B68002000F0C8FFC2
:101BB00000F0EEFF002000F0D7FF00BF0837BD4661
:101BC00080BD00BF0044025880B58EB000AF786081
:101BD00007F1240300221A605A609A60DA601A61E1
:101BE0007B681B68A74A93427ED1A74B1B680133D1
:101BF000A54A1360A44B1B68012B0ED1A34BD3F84D
:101C0000D830A24A43F02003C2F8D8309F4BD3F813
:101C1000D83003F020033B623B6A9C4BD3F8E030A2
:101C20009A4A43F00103C2F8E030984BD3F8E03011
:101C300003F00103FB61FB69944BD3F8E030934A56
:101C400043F00203C2F8E030904BD3F8E03003F0E9
:101C50000203BB61BB6940237B620323BB62002399
:101C6000FB6207F124031946894806F0CDFA0323E5
:101C70007B620323BB620023FB6207F12403194646
:101C8000844806F0C1FA844B844A1A60824B0922C8
:101C90005A60814B00229A607F4B0022DA607E4BB3
:101CA0004FF480621A617C4B4FF400625A617A4BA8
:101CB0004FF400529A61784B4FF48072DA61764BA0
:101CC00000221A62744B00225A62734802F0E2FF4B
:101CD0000346002B01D0FFF741FF7B686E4ADA64B0
:101CE0006D4A7B689363C9E07B681B686C4A9342CA
:101CF00064D1654B1B680133634A1360624B1B68F8
:101D0000012B0ED1614BD3F8D830604A43F0200349
:101D1000C2F8D8305D4BD3F8D83003F020037B6194
:101D20007B695A4BD3F8E030584A43F00103C2F8BC
:101D3000E030564BD3F8E03003F001033B613B69E0
:101D400040237B620323BB620023FB6207F1240371
:101D500019464F4806F058FA524B534A1A60514BF5
:101D60000A225A604F4B00229A604E4B0022DA60E2
:101D70004C4B4FF480621A614A4B4FF400625A6137
:101D8000484B4FF400529A61464B4FF48072DA612F
:101D9000444B4FF400321A62424B00225A624148CF
:101DA00002F078FF0346002B01D0FFF7D7FE7B68D7
:101DB0003C4ADA643B4A7B6893635FE07B681B685C
:101DC0003A4A93425AD1314BD3F8E0302F4A43F08C
:101DD0008073C2F8E0302D4BD3F8E03003F080730D
:101DE000FB60FB68294BD3F8E030284A43F004033A
:101DF000C2F8E030254BD3F8E03003F00403BB60B9
:101E0000BB684FF080614FF0806000F0F9FE4FF04A
:101E100000614FF0006000F0F3FE254B254A1A6088
:101E2000234B73225A60224B00229A60204B0022DF
:101E3000DA601F4B4FF480621A611D4B4FF4006251
:101E40005A611B4B4FF400529A61194B4FF4807248
:101E5000DA61174B4FF400321A62154B00225A62B6
:101E6000134802F017FF0346002B01D0FFF776FE60
:101E70007B680F4ADA640E4A7B68936300BF383789
:101E8000BD4680BD002002402C0C002000440258BA
:101E90000000025800040258100400201000024004
:101EA00000210240880400202800024000600258FF
:101EB000000500205800024080B58AB000AF78606D
:101EC00007F1140300221A605A609A60DA601A61FE
:101ED0007B681B68304A934259D1304BD3F8E830C5
:101EE0002E4A43F00053C2F8E8302C4BD3F8E830C8
:101EF00003F000533B613B69284BD3F8E030274A9D
:101F000043F00103C2F8E030244BD3F8E03003F093
:101F10000103FB60FB6810237B610323BB6100238B
:101F2000FB6107F1140319461D4806F06DF91D4BBE
:101F30001D4A1A601B4B43225A601A4B40229A607A
:101F4000184B0022DA60174B4FF480621A61154B70
:101F50004FF400625A61134B4FF400529A61114BD7
:101F60004FF48072DA610F4B00221A620D4B00228F
:101F70005A620C4802F08EFE0346002B01D0FFF798
:101F8000EDFD7B68074A9A60064A7B68936300BF51
:101F90002837BD4680BD00BF007400400044025891
:101FA000000002588C0500207000024080B5BCB0D3
:101FB00000AF786007F1DC0300221A605A609A6073
:101FC000DA601A6107F11803C0220021184629F0CF
:101FD00041FD7B681B68394A93426BD14FF0080280
:101FE0004FF00003C7E906230023C7F89C3007F130
:101FF0001803184607F026FC0346002B01D0FFF714
:10200000ADFD2F4BD3F8E0302D4A43F00403C2F866
:10201000E0302B4BD3F8E03003F004037B617B69A5
:10202000274BD3F8E030264A43F00103C2F8E030F2
:10203000234BD3F8E03003F001033B613B694FF4DD
:102040000073C7F8DC301223C7F8E0300123C7F86B
:10205000E4300023C7F8E8300423C7F8EC3007F178
:10206000DC031946174806F0CFF84FF48073C7F821
:10207000DC301223C7F8E0300123C7F8E430002336
:10208000C7F8E8300423C7F8EC3007F1DC03194641
:102090000D4806F0B9F80A4BD3F8E830084A43F483
:1020A0000003C2F8E830064BD3F8E83003F400032D
:1020B000FB60FB6800BFF037BD4680BD005C0040A0
:1020C00000440258000802580000025880B5C0B011
:1020D00000AF786007F1EC0300221A605A609A6042
:1020E000DA601A6107F12803C0220021184629F09E
:1020F000B1FC7B681B68884A934234D1874BD3F884
:10210000E830864A43F48043C2F8E830834BD3F882
:10211000E83003F480437B627B6A804BD3F8E03085
:102120007E4A43F00203C2F8E0307C4BD3F8E03043
:1021300003F002033B623B6A4FF44443C7F8EC30C0
:102140000223C7F8F0300023C7F8F4300023C7F8A3
:10215000F8300523C7F8FC3007F1EC031946704846
:1021600006F052F8D3E07B681B686E4A934259D15F
:102170006A4BD3F8E830694A43F40043C2F8E830C8
:10218000664BD3F8E83003F40043FB61FB69634B13
:10219000D3F8E030614A43F00103C2F8E0305F4B0E
:1021A000D3F8E03003F00103BB61BB695B4BD3F8AC
:1021B000E0305A4A43F00403C2F8E030574BD3F8FA
:1021C000E03003F004037B617B694FF40043C7F800
:1021D000EC300223C7F8F0300023C7F8F4300023B6
:1021E000C7F8F8300623C7F8FC3007F1EC031946AE
:1021F0004D4806F009F84FF4E053C7F8EC300223DD
:10220000C7F8F0300023C7F8F4300023C7F8F830DF
:102210000623C7F8FC3007F1EC031946434805F0E4
:10222000F3FF74E07B681B68414A93426FD14FF41F
:1022300000524FF00003C7E90A230023C7F88C308F
:1022400007F12803184607F0FDFA0346002B01D0DA
:10225000FFF784FC314BD3F8F030304A43F400539D
:10226000C2F8F0302D4BD3F8F03003F400533B614B
:102270003B692A4BD3F8E030284A43F01003C2F8F8
:10228000E030264BD3F8E03003F01003FB60FB682E
:102290004423C7F8EC300223C7F8F0300023C7F816
:1022A000F4300023C7F8F8300523C7F8FC3007F1F5
:1022B000EC0319461F4805F0A7FF1023C7F8EC30C0
:1022C0000223C7F8F0300123C7F8F4300023C7F821
:1022D000F8300523C7F8FC3007F1EC031946154820
:1022E00005F092FF2023C7F8EC300223C7F8F03046
:1022F0000223C7F8F4300023C7F8F8300523C7F8E5
:10230000FC3007F1EC0319460A4805F07DFF00BFD9
:1023100007F58077BD4680BD003800400044025874
:1023200000040258003C0040000002580008025817
:10233000003401400010025880B588B000AF7860CA
:102340007B681B686D4A93423ED16D4BD3F8F030E9
:102350006B4A43F00103C2F8F030694BD3F8F03018
:1023600003F00103FB61FB69664B674A1A60654B2A
:102370000F225A60634B40229A60624B0022DA605F
:10238000604B4FF480621A615E4B4FF400625A61F9
:102390005C4B4FF400529A615A4B0022DA61594B60
:1023A00000221A62574B00225A62564802F072FC11
:1023B0000346002B01D0FFF7D1FB7B68514A1A621C
:1023C000504A7B68936394E07B681B68B3F1804F4D
:1023D0000FD14B4BD3F8E830494A43F00103C2F820
:1023E000E830474BD3F8E83003F00103BB61BB6929
:1023F0007FE07B681B68454A93420FD1404BD3F87E
:10240000E8303F4A43F00203C2F8E8303C4BD3F8CF
:10241000E83003F002037B617B696AE07B681B683C
:102420003B4A93423CD1364BD3F8E830344A43F030
:102430000803C2F8E830324BD3F8E83003F0080361
:102440003B613B69334B344A1A60324B3B225A6042
:10245000304B40229A602F4B0022DA602D4B4FF414
:1024600080621A612B4B00225A612A4B00229A612A
:10247000284B0022DA61274B00221A62254B0022EA
:102480005A62244802F006FC0346002B01D0FFF7F5
:1024900065FB7B681F4A1A621E4A7B68936328E0CB
:1024A0007B681B681D4A93420FD1154BD3F8E83067
:1024B000134A43F01003C2F8E830114BD3F8E83068
:1024C00003F01003FB60FB6813E07B681B68144A91
:1024D00093420ED10A4BD3F8F030094A43F48033CB
:1024E000C2F8F030064BD3F8F03003F48033BB6011
:1024F000BB6800BF2037BD4680BD00BF0000014063
:1025000000440258B8090020400402400004004082
:10251000000C0040300A0020400002400010004043
:102520000040014080B588B000AF786007F10C032F
:1025300000221A605A609A60DA601A617B681B6830
:10254000134A93421FD1134BD3F8E030114A43F0A2
:102550001003C2F8E0300F4BD3F8E03003F0100363
:10256000BB60BB684FF44073FB6002233B610023F8
:102570007B610023BB610123FB6107F10C0319465A
:10258000054805F041FE00BF2037BD4680BD00BFB5
:1025900000000140004402580010025880B5BAB053
:1025A00000AF786007F1D40300221A605A609A6085
:1025B000DA601A6107F11003C0220021184629F0E1
:1025C00049FA7B681B68554A934240F0A3804FF05C
:1025D00001024FF00003C7E904230023C7F88C3041
:1025E00007F11003184607F02DF90346002B01D020
:1025F000FFF7B4FA4A4BD3F8F030494A43F01003DE
:10260000C2F8F030464BD3F8F03003F01003FB6013
:10261000FB68434BD3F8E030414A43F00103C2F872
:10262000E0303F4BD3F8E03003F00103BB60BB6800
:102630004FF4C063C7F8D4300223C7F8D830002362
:10264000C7F8DC300023C7F8E0300723C7F8E430D0
:1026500007F1D4031946334805F0D6FD324B334A0F
:102660001A60314B29225A602F4B00229A602E4B60
:102670000022DA602C4B4FF480621A612A4B002250
:102680005A61294B00229A61274B4FF48072DA611C
:10269000254B00221A62244B00225A62224802F083
:1026A000F9FA0346002B01D0FFF758FA7B681E4A5F
:1026B000C3F880201C4A7B6893631D4B1D4A1A6037
:1026C0001B4B2A225A601A4B40229A60184B002258
:1026D000DA60174B4FF480621A61154B00225A6181
:1026E000134B00229A61124B0022DA61104B002238
:1026F0001A620F4B00225A620D4802F0CBFA0346D1
:10270000002B01D0FFF72AFA7B68094ADA67084AEA
:102710007B68936300BFE837BD4680BD0010014071
:1027200000440258000002583C0B002058040240AC
:10273000B40B00207004024080B400AF00BFFDE77E
:1027400080B400AF00BFFDE780B400AF00BFFDE77D
:1027500080B400AF00BFFDE780B400AF00BFFDE76D
:1027600080B400AF00BFBD465DF8047B704780B405
:1027700000AF00BFBD465DF8047B704780B400AF7A
:1027800000BFBD465DF8047B704780B500AF00F028
:1027900087F900BF80BD000080B500AF024803F09C
:1027A000C3FE00BF80BD00BF1004002080B500AF95
:1027B000024803F0B9FE00BF80BD00BF88040020BE
:1027C00080B500AF024803F0AFFE00BF80BD00BF80
:1027D000300A002080B500AF024803F0A5FE00BF1C
:1027E00080BD00BF0005002080B500AF024803F0A7
:1027F0009BFE00BF80BD00BF8C05002080B500AFF0
:10280000024803F091FE00BF80BD00BFB809002060
:1028100080B500AF024803F087FE00BF80BD00BF57
:102820003C0B002080B500AF024803F07DFE00BFE6
:1028300080BD00BFB40B002080B586B000AF7860CB
:10284000144A154BD31A7B617B693B61134B1B68A0
:10285000002B02D1114B124A1A60104B1A687B6888
:1028600013443A699A4207D229F0C0F903460C2270
:102870001A604FF0FF3309E0084B1B68FB60074B01
:102880001A687B681344054A1360FB6818461837BA
:10289000BD4680BD0000022000400000300C00203A
:1028A000C43C012080B400AF294BD3F88830284ABB
:1028B00043F47003C2F88830264B1B68254A43F066
:1028C00001031360234B00221A61224B1A6821492D
:1028D000214B13400B601F4B00229A611D4B0022BD
:1028E000DA611C4B00221A621A4B00229A62194BC1
:1028F0000022DA62174B00221A63164B00225A6339
:10290000144B00229A63134B0022DA63114B00220E
:102910001A64104B00225A640E4B1B680D4A23F4B4
:10292000802313600B4B00221A660C4B1A680C4B69
:102930001340B3F1005F02D20A4B01221A60044B2C
:102940004FF000629A6000BFBD465DF8047B70479F
:1029500000ED00E0004402587FEDF6EA0010005C54
:102960000000FFFF08810051DFF834D0002103E0B0
:102970000C4B5B58435004310B480C4B42189A42A5
:10298000F6D30B4A02E0002342F8043B094B9A427B
:10299000F9D3FFF787FF29F02FF9FEF7C5F8704745
:1029A00000000220F498030800000020C802002064
:1029B000C8020020C43C0120FEE7000080B582B0C0
:1029C00000AF032001F04AFF06F066FD0246154BFA
:1029D0009B691B0A03F00F031349CB5C03F01F0331
:1029E00022FA03F37B600F4B9B6903F00F030E4A3F
:1029F000D35C03F01F037A6822FA03F30B4A1360D7
:102A00000B4A7B681360002000F014F80346002B8B
:102A100001D0012302E0FFF7A7F80023184608378A
:102A2000BD4680BD00440258FC2803080400002075
:102A30000000002080B582B000AF7860154B1B7895
:102A4000002B01D1012321E0134B1A68114B1B7895
:102A500019464FF47A73B3FBF1F3B2FBF3F3184664
:102A600001F02FFF0346002B01D001230EE07B680D
:102A70000F2B0AD8002279684FF0FF3001F0F9FEE1
:102A8000064A7B681360002300E0012318460837DC
:102A9000BD4680BD0C000020000000200800002082
:102AA00080B400AF064B1B781A46064B1B681344D4
:102AB000044A136000BFBD465DF8047B704700BF49
:102AC0000C000020340C002080B400AF034B1B68C6
:102AD0001846BD465DF8047B704700BF340C0020EB
:102AE00080B584B000AF7860FFF7EEFFB8607B6818
:102AF000FB60FB68B3F1FF3F05D00A4B1B781A4619
:102B0000FB681344FB6000BFFFF7DEFF0246BB68B3
:102B1000D31AFA689A42F7D800BF00BF1037BD46F3
:102B200080BD00BF0C00002080B400AF034B1B68C9
:102B30001B0C1846BD465DF8047B70470010005C16
:102B400080B483B000AF7860064B1B6823F070023E
:102B500004497B6813430B6000BF0C37BD465DF82A
:102B6000047B7047003C005880B483B000AF7860AD
:102B7000064B1B6823F0020204497B6813430B6079
:102B800000BF0C37BD465DF8047B7047003C005821
:102B900080B582B000AF0F4B1B680E4A43F00103B3
:102BA0001360FFF791FF786008E0FFF78DFF0246A2
:102BB0007B68D31A0A2B01D9032306E0054B1B6857
:102BC00003F00803002BF0D0002318460837BD4659
:102BD00080BD00BF003C005880B483B000AF786077
:102BE000064B5B6823F4600204497B6813434B6027
:102BF00000BF0C37BD465DF8047B704700040058E9
:102C000080B483B000AF78603960074B5A687B6846
:102C1000DB431A4004493B6813434B6000BF0C3749
:102C2000BD465DF8047B70470004005880B483B053
:102C300000AF786039607B689B6823F47C123B6846
:102C40001A437B689A6000BF0C37BD465DF8047B71
:102C5000704780B483B000AF786039607B689B6850
:102C600023F0E0723B681A437B689A6000BF0C3720
:102C7000BD465DF8047B704780B483B000AF7860D8
:102C80007B689B6803F0E07318460C37BD465DF81F
:102C9000047B704780B487B000AFF860B9607A6099
:102CA0003B60FB6860331A46BB689B0013447B6142
:102CB0007B691B6803F000427B6803F0F8413B68C6
:102CC0000B431A437B691A6000BF1C37BD465DF891
:102CD000047B704780B485B000AFF860B9607A605B
:102CE000FB681B6923F4F042BB6803F01F0379689B
:102CF00001FA03F31A43FB681A6100BF1437BD469B
:102D00005DF8047B704780B487B000AFF860B960AD
:102D10007A60FB6860331A46BB689B0013447B6192
:102D20007B691B6823F000427B681A437B691A6049
:102D300000BF1C37BD465DF8047B704780B483B08C
:102D400000AF78607B68DB6803F44063002B01D13F
:102D5000012300E0002318460C37BD465DF8047BD4
:102D6000704780B487B000AFF860B9607A60FB68E4
:102D700030331A46BB681B0A9B0003F00C03134454
:102D80007B617B691A68BB6803F01F031F2101FA8E
:102D900003F3DB431A407B689B0E03F01F01BB6803
:102DA00003F01F0301FA03F31A437B691A6000BFA3
:102DB0001C37BD465DF8047B704780B483B000AF1C
:102DC000786039607B68DB6823F003023B681A4354
:102DD0007B68DA6000BF0C37BD465DF8047B704746
:102DE00080B487B000AFF860B9607A60FB681433D4
:102DF0001A46BB685B0E9B0003F0040313447B611F
:102E00007B691A68BB681B0D03F01F03072101FAD9
:102E100003F3DB431A40BB681B0D03F01F03796803
:102E200001FA03F31A437B691A6000BF1C37BD46E1
:102E30005DF8047B7047000080B485B000AFF86097
:102E4000B9607A60FB68D3F8C020BB68C3F3130392
:102E5000DB431A407B6803F018030849D940BB687C
:102E60000B40C3F313031A43FB68C3F8C02000BF31
:102E70001437BD465DF8047B704700BFFFFF0F00AD
:102E800080B483B000AF78607B689B6803F01F0359
:102E900018460C37BD465DF8047B704780B483B09C
:102EA00000AF78607B689A68044B13407A6893603F
:102EB00000BF0C37BD465DF8047B7047C0FFFF5F65
:102EC00080B483B000AF78607B689B6803F00053E8
:102ED000B3F1005F01D1012300E0002318460C3755
:102EE000BD465DF8047B704780B483B000AF786066
:102EF0007B689A68054B134043F080527B689A6068
:102F000000BF0C37BD465DF8047B7047C0FFFF6F04
:102F100080B483B000AF78607B689B6803F0805317
:102F2000B3F1805F01D1012300E0002318460C3784
:102F3000BD465DF8047B704780B483B000AF786015
:102F40007B689A68054B134043F001027B689A60E6
:102F500000BF0C37BD465DF8047B7047C0FFFF7FA4
:102F600080B483B000AF78607B689A68054B1340EB
:102F700043F002027B689A6000BF0C37BD465DF8E3
:102F8000047B7047C0FFFF7F80B483B000AF7860E0
:102F90007B689B6803F00103012B01D1012300E052
:102FA000002318460C37BD465DF8047B704780B49B
:102FB00083B000AF78607B689B6803F00203022B4C
:102FC00001D1012300E0002318460C37BD465DF80F
:102FD000047B704780B483B000AF78607B689A68E8
:102FE000054B134043F004027B689A6000BF0C3726
:102FF000BD465DF8047B7047C0FFFF7F80B483B09F
:1030000000AF78607B689A68054B134043F010026C
:103010007B689A6000BF0C37BD465DF8047B704743
:10302000C0FFFF7F80B483B000AF78607B689B688F
:1030300003F00403042B01D1012300E00023184610
:103040000C37BD465DF8047B7047000080B483B048
:1030500000AF78607B689A68054B134043F020020C
:103060007B689A6000BF0C37BD465DF8047B7047F3
:10307000C0FFFF7F80B483B000AF78607B689B683F
:1030800003F00803082B01D1012300E000231846B8
:103090000C37BD465DF8047B7047000090B589B0E1
:1030A00000AF78600023FB770023BB607B68002BB8
:1030B00001D101238FE17B68DB68002B7B685B6DAE
:1030C000002B09D17868FEF77FFD7B6800229A65A6
:1030D0007B68002283F850207B681B681846FFF746
:1030E000EFFE0346002B04D07B681B681846FFF7F1
:1030F000D5FE7B681B681846FFF70AFF0346002BC6
:1031000014D17B681B681846FFF7EEFE874B1B68DF
:103110009B09874AA2FB03239B090133BB6002E0A2
:10312000BB68013BBB60BB68002BF9D17B681B68A7
:103130001846FFF7EDFE0346002B0DD17B685B6D53
:1031400043F010027B685A657B689B6D43F0010277
:103150007B689A650123FB777B681B681846FFF73D
:1031600061FF78617B685B6D03F01003002B40F01A
:1031700029817B69002B40F025817B685B6D23F4FE
:10318000817343F002027B685A657B681B681846AE
:10319000FFF7FAFE0346002B36D17B681B68654AB1
:1031A000934204D07B681B68634A93420ED1614806
:1031B000FFF7EAFE04466048FFF7E6FE03462343B6
:1031C000002B0CBF01230023DBB208E05B48FFF7B4
:1031D000DBFE0346002B0CBF01230023DBB2002BD8
:1031E00012D07B681B68534A934204D07B681B68EB
:1031F000514A934201D1524A00E0524A7B685B68CF
:1032000019461046FFF712FDFFF78EFC034641F208
:103210000302934214D97B689B68102B10D17B6802
:103220005B7D5A037B681B6B1A437B689B681A4360
:103230007B681B7F1B04134343F00C03BB610DE051
:103240007B685B7D5A037B681B6B1A437B689B68BA
:103250001A437B681B7F1B041343BB617B681B7F86
:10326000012B06D17B681B6A013B5B04BA691343DF
:10327000BB617B685B6A002B09D07B685B6A03F4E7
:1032800078727B689B6A1343BA691343BB617B689E
:103290001B68DA682C4B13407A681268B9690B43D3
:1032A000D3607B681B681846FFF7BCFE38617B68FB
:1032B0001B681846FFF7DEFEF8603B69002B5FD104
:1032C000FB68002B5CD17B681B7D9A037B68DB6A03
:1032D0001343BB617B681B68DA681C4B13407A6838
:1032E0001268B9690B43D3607B6893F83830012BBF
:1032F00030D17B685B6A002B7B681B681A69144BB2
:1033000013407A68D26B013A11047A68126C114347
:103310007A68526C11437A68926C0A431A437B684C
:103320001B6842F001021A611CE000BF000000208F
:10333000632D3E050020024000210240006002583B
:10334000002302400063025803C0F0FFFCBFFFFFF0
:103350001EF800FC7B681B681A697B681B6822F0FA
:1033600001021A617B681B681B6923F070417B684E
:103370005A6B7B681B680A431A61786800F0F6FE96
:103380007B68DB68012B0CD17B681B681B6B23F00F
:103390000F017B689B695A1E7B681B680A431A638E
:1033A00007E07B681B681A6B7B681B6822F00F02C2
:1033B0001A637B685B6D23F0030343F001027B68B3
:1033C0005A6507E07B685B6D43F010027B685A65C5
:1033D0000123FB77FB7F18462437BD4690BD00BF15
:1033E00080B586B000AFF860B9607A60FB681B6892
:1033F000554A934204D0FB681B68544A934201D15A
:10340000534B00E0534B1846FFF73AFD3861FB6819
:103410001B681846FFF706FE0346002B40F08C8021
:10342000FB6893F85030012B01D1022387E0FB6841
:10343000012283F850203B69002B05D03B69052B06
:1034400002D03B69092B70D1F86800F011FD0346EA
:10345000FB75FB7D002B63D1FB685A6D3E4B13401F
:1034600043F48072FB685A65FB681B68374A9342D5
:1034700002D0FB681B6800E0334BFA681268934285
:1034800002D03B69002B05D1FB685B6D23F48012F1
:10349000FB685A65FB685B6D03F48053002B06D014
:1034A000FB689B6D23F00602FB689A6502E0FB68EF
:1034B00000229A65FB68DB6C284ADA63FB68DB6CE8
:1034C000274A1A64FB68DB6C264ADA64FB681B68CF
:1034D0001C221A60FB68002283F85020FB681B68DE
:1034E0005A68FB681B6842F010025A60FB681A6851
:1034F000FB68DB6A19461046FFF75FFCFB68D86C77
:10350000FB681B6840331946BA687B6802F03EF8D6
:103510000346FB75FB681B681846FFF75BFD0DE073
:10352000FB68002283F8502008E00123FB75FB684C
:10353000002283F8502001E00223FB75FB7D184632
:103540001837BD4680BD00BF002002400021024068
:103550000023024000630258FEF0FFFF43400008D2
:103560001B4100083741000880B584B000AF786087
:103570007B6893F85030012B01D102234FE07B6828
:10358000012283F850200321786800F0B5FB034640
:10359000FB73FB7B002B3DD17B681B68DA687B6883
:1035A0001B6822F00302DA607B68DB6C93F835302D
:1035B000DBB2022B0FD17B68DB6C184602F050FAAD
:1035C0000346FB73FB7B002B05D07B685B6D43F0F0
:1035D00040027B685A657B681B685A687B681B6879
:1035E00022F010025A60FB7B002B05D1786800F0B6
:1035F000C9FC0346FB7302E0786800F0C3FCFB7B68
:10360000002B07D17B685A6D074B134043F0010232
:103610007B685A657B68002283F85020FB7B184644
:103620001037BD4680BD00BFFEEEFFFF80B483B003
:1036300000AF786000BF0C37BD465DF8047B704773
:1036400090B5A1B000AF78603960002387F87F3073
:103650000023BB603B68DB68654A93427B6893F854
:103660005030012B01D102232EE37B68012283F825
:1036700050207B681B681846FFF7D4FC0346002BDC
:1036800040F013833B681B68002B2CDB3B681B68F6
:10369000C3F31303002B08D13B681B689B0E03F098
:1036A0001F03012202FA03F316E03B681B687B66E6
:1036B0007B6E93FAA3F33B663B6EBB66BB6E002B3F
:1036C00001D1202303E0BB6EB3FA83F3DBB203F036
:1036D0001F03012202FA03F37A681268D1697A683B
:1036E00012680B43D3617B6818683B6859683B6874
:1036F0001B681A46FFF735FB7B681B681846FFF707
:1037000091FCB8677B681B681846FFF7B3FC7867C5
:10371000BB6F002B40F0B8807B6F002B40F0B48073
:103720007B6818683B6819683B689B681A46FFF716
:1037300057FB304B1B6803F07043B3F1805F0BD134
:103740003B685A697B681B68DB689B0803F00703CA
:103750005B0002FA03F31DE07B681B68DB6803F083
:103760001003002B0BD13B685A697B681B68DB6830
:103770009B0803F007035B0002FA03F30AE03B68CF
:103780005A697B681B68DB689B0803F004035B00D5
:1037900002FA03F33B673B681B69042B2CD07B6860
:1037A00018683B6819693B681A683B6FFFF772FA43
:1037B0007B6818683B6819693B685B7E012B02D106
:1037C0004FF0004300E000231A46FFF79CFA7B68A5
:1037D00018683B6819693B681B7E012B02D14FF4C6
:1037E000006300E000231A46FFF774FA4CE000BFC4
:1037F0000000FF470010005C7B681B681B6E03F035
:10380000F8423B681B689B069A4207D17B681B689D
:103810001A6E7B681B6822F000421A667B681B6880
:103820005B6E03F0F8423B681B689B069A4207D127
:103830007B681B685A6E7B681B6822F000425A66E0
:103840007B681B689B6E03F0F8423B681B689B0615
:103850009A4207D17B681B689A6E7B681B6822F0CE
:1038600000429A667B681B68DB6E03F0F8423B6897
:103870001B689B069A4207D17B681B68DA6E7B68DF
:103880001B6822F00042DA667B681B681846FFF767
:103890007BFB0346002B40F011827B6818683B6875
:1038A00019683B68DB681A46FFF7C6FA3B68DB68B5
:1038B000A14A934240F02E817B6818683B681B68E0
:1038C000C3F31303002B0BD13B681B689B0E013322
:1038D00003F01F03092B94BF01230023DBB219E07F
:1038E0003B681B68BB65BB6D93FAA3F37B657B6D7F
:1038F000FB65FB6D002B01D1202303E0FB6DB3FAC8
:1039000083F3DBB2013303F01F03092B94BF0123C0
:103910000023DBB2002B79D03B681B68C3F3130391
:10392000002B07D13B681B689B0E01339B0603F0FD
:10393000F84215E03B681B68FB64FB6C93FAA3F349
:10394000BB64BB6C3B653B6D002B01D1202303E0C6
:103950003B6DB3FA83F3DBB201339B0603F0F8420D
:103960003B681B68C3F31303002B09D13B681B683A
:103970009B0E013303F01F03012101FA03F317E04B
:103980003B681B683B643B6C93FAA3F3FB63FB6BE4
:103990007B647B6C002B01D1202303E07B6CB3FAAA
:1039A00083F3DBB2013303F01F03012101FA03F3B8
:1039B00042EA03013B681B68C3F31303002B0AD1DF
:1039C0003B681B689B0E013303F01F0213465B002C
:1039D00013441B0518E03B681B687B637B6B93FA01
:1039E000A3F33B633B6BBB63BB6B002B01D1202379
:1039F00003E0BB6BB3FA83F3DBB2013303F01F02C6
:103A000013465B0013441B050B437EE03B681B68B9
:103A1000C3F31303002B07D13B681B689B0E0133D4
:103A20009B0603F0F84215E03B681B68BB62BB6A6B
:103A300093FAA3F37B627B6AFB62FB6A002B01D1E2
:103A4000202303E0FB6AB3FA83F3DBB201339B0666
:103A500003F0F8423B681B68C3F31303002B09D142
:103A60003B681B689B0E013303F01F03012101FA21
:103A700003F317E03B681B68FB61FB6993FAA3F350
:103A8000BB61BB693B623B6A002B01D1202303E091
:103A90003B6AB3FA83F3DBB2013303F01F03012166
:103AA00001FA03F342EA03013B681B68C3F3130303
:103AB000002B0DD13B681B689B0E013303F01F02E6
:103AC00013465B0013441E3B1B0543F000731BE0D1
:103AD0003B681B683B613B6993FAA3F3FB60FB689F
:103AE0007B617B69002B01D1202303E07B69B3FA62
:103AF00083F3DBB2013303F01F0213465B00134470
:103B00001E3B1B0543F000730B433A68926819464D
:103B1000FFF766F93B681B68002B80F2CF807B685B
:103B20001B68064A934204D07B681B68044A934290
:103B30000AD1044B09E000BF0000FF47002002400B
:103B40000021024000230240614B1846FFF794F821
:103B5000F8667B681B685F4A934204D07B681B68E9
:103B60005D4A93420ED15B48FFF70EFA04465A486D
:103B7000FFF70AFA03462343002B0CBF012300235F
:103B8000DBB208E05548FFF7FFF90346002B0CBFF6
:103B900001230023DBB2002B7DD03B681B68504A19
:103BA000934230D1FB6E03F40003002B2BD17B68D2
:103BB0001B684A4A934240F081807B681B68454AF3
:103BC000934204D07B681B68434A934201D1454A23
:103BD00000E03F4AFB6E43F4000319461046FFF72E
:103BE00038F8414B1B689B09404AA2FB03239B0901
:103BF00001335B00BB6002E0BB68013BBB60BB689C
:103C0000002BF9D15AE03B681B68394A93421ED118
:103C1000FB6E03F08073002B19D17B681B682F4A61
:103C200093424BD17B681B682A4A934204D07B683D
:103C30001B68294A934201D12A4A00E0244AFB6EBC
:103C400043F0807319461046FFF703F836E03B68EF
:103C50001B68284A934231D1FB6E03F48003002B8A
:103C60002CD17B681B681D4A934227D17B681B6857
:103C7000184A934204D07B681B68174A934201D1CB
:103C8000184A00E0124AFB6E43F4800319461046BE
:103C9000FEF7DFFF12E07B685B6D43F020027B687C
:103CA0005A65012387F87F3008E07B685B6D43F03D
:103CB00020027B685A65012387F87F307B680022E9
:103CC00083F8502097F87F3018468437BD4690BD62
:103CD00000630258002002400021024000600258A8
:103CE000000084CB0023024000000020632D3E052D
:103CF000000052C70000B8CF80B588B000AF786030
:103D000039600023FB613B68BB617B681B68184618
:103D1000FFF788F938617B681B681846FFF7AAF936
:103D2000F8603B69002B03D1FB68002B00F0988002
:103D30007B681B68DB6803F00073002B2AD07B686C
:103D40005B7D012B26D17B681B7D012B22D10123BA
:103D5000BB6114E0FB69454A93420DD97B685B6DFA
:103D600043F010027B685A657B689B6D43F001024B
:103D70007B689A65012374E0FB690133FB617B6812
:103D80001B681B6803F04003402BE3D17B681B6872
:103D900040221A60BB69022B14D07B681B6818464E
:103DA000FFF740F90346002B0CD07B681B681846D0
:103DB000FFF7FDF80346002B04D17B681B6818460B
:103DC000FFF71CF9BB69012B14D07B681B681846F0
:103DD000FFF750F90346002B0CD07B681B68184690
:103DE000FFF7E5F80346002B04D17B681B681846F3
:103DF000FFF72CF9BB69022B05D0BB69032B05D15A
:103E00000C237B6105E008237B6102E004237B61D6
:103E100000BFFEF759FEB8601BE0FEF755FE0246F4
:103E2000BB68D31A052B14D97B681B689A687B6919
:103E30001340002B0DD07B685B6D43F010027B6854
:103E40005A657B689B6D43F001027B689A6501238C
:103E500007E07B681B689A687B691340002BDCD104
:103E6000002318462037BD4680BD00BFFFDB0C0095
:103E700080B584B000AF78607B681B681846FFF798
:103E800083F80346002B6ED17B681B689A68384B19
:103E90001340002B0DD07B685B6D43F010027B68F4
:103EA0005A657B689B6D43F001027B689A6501232C
:103EB0005AE07B681B681846FFF73EF8FEF704FEE1
:103EC000F8607B681B682B4A934204D07B681B68B0
:103ED000294A934201D1294B00E0294B1846FEF7AD
:103EE000CFFFB8607B681B68234A934202D07B688F
:103EF0001B6800E01F4B7A68126893422CD0BB68A5
:103F0000002B30D128E07B681B681846FFF73CF88F
:103F10000346002B04D17B681B681846FFF70CF89A
:103F2000FEF7D2FD0246FB68D31A022B14D97B6838
:103F30001B681B6803F00103012B0DD07B685B6DD0
:103F400043F010027B685A657B689B6D43F0010269
:103F50007B689A65012307E07B681B681B6803F098
:103F60000103012BCFD1002318461037BD4680BD79
:103F70003F00008000200240002102400023024058
:103F80000063025880B584B000AF78607B681B681E
:103F90001846FFF70CF8F8607B681B681846FEF7B8
:103FA000F3FF0346002B47D0FB68002B44D17B680E
:103FB0001B689B6803F00D03012B0CD17B681B6809
:103FC0001846FEF7CDFF7B681B6803221A60FEF7D8
:103FD0007BFDB86029E07B685B6D43F010027B6875
:103FE0005A657B689B6D43F001027B689A650123EB
:103FF00023E0FEF769FD0246BB68D31A022B14D9F1
:104000007B681B689B6803F00103002B0DD07B6865
:104010005B6D43F010027B685A657B689B6D43F0D3
:1040200001027B689A65012307E07B681B689B6837
:1040300003F00103002BDCD1002318461037BD46E6
:1040400080BD80B584B000AF78607B689B6BFB60FF
:10405000FB685B6D03F05003002B4BD1FB685B6D7D
:1040600043F40072FB685A65FB681B681B6803F029
:104070000803002B21D0FB681B681846FEF75EFE84
:104080000346002B32D0FB681B68DB6803F4005347
:10409000002B2BD1FB685B6D23F48072FB685A65A3
:1040A000FB685B6D03F48053002B1FD1FB685B6DD5
:1040B00043F00102FB685A6518E0FB681B68DB6887
:1040C00003F00303002B11D1FB685B6D23F48072B6
:1040D000FB685A65FB685B6D03F48053002B05D1C8
:1040E000FB685B6D43F00102FB685A65F8680AF0F3
:1040F0008BFF0EE0FB685B6D03F01003002B03D019
:10410000F868FFF793FA04E0FB68DB6CDB6C786817
:10411000984700BF1037BD4680BD80B584B000AF62
:1041200078607B689B6BFB60F8680AF078FF00BFE3
:104130001037BD4680BD80B584B000AF78607B6825
:104140009B6BFB60FB685B6D43F04002FB685A654C
:10415000FB689B6D43F00402FB689A65F868FFF703
:1041600065FA00BF1037BD4680BD000080B584B041
:1041700000AF78607B681B687A4A934204D07B6802
:104180001B68794A934209D1784B9B6803F440330A
:10419000002B14BF01230023DBB208E0744B9B68A3
:1041A00003F44033002B14BF01230023DBB2002BA8
:1041B0001CD005F0EBFAF8607B685B68B3F5403F14
:1041C00010D0B3F5403F73D8B3F5803F02D0B3F5BC
:1041D000003F6DD17B685B681B0CFA68B2FBF3F3A0
:1041E000FB6068E0FB689B08FB6064E04FF4002024
:1041F0004FF0000106F030FDF8607B685B68B3F5B6
:10420000301F51D0B3F5301F54D8B3F5201F47D01D
:10421000B3F5201F4ED8B3F5101F3DD0B3F5101FD6
:1042200048D8B3F5001F33D0B3F5001F42D8B3F51B
:10423000E01F29D0B3F5E01F3CD8B3F5C01F1AD05A
:10424000B3F5C01F36D8B3F5A01F14D0B3F5A01F27
:1042500030D8B3F5801F0ED0B3F5801F2AD8B3F540
:10426000402F08D0B3F5402F24D8B3F5802F02D0CB
:10427000B3F5002F1ED17B685B689B0C5B00FA686E
:10428000B2FBF3F3FB6016E0FB681B09FB6012E076
:10429000FB685B09FB600EE0FB689B09FB600AE0C2
:1042A000FB68DB09FB6006E0FB681B0AFB6002E0C1
:1042B00000BF00E000BFFEF737FC034641F20302F7
:1042C000934215D8FB682B4A934208D97B681B6838
:1042D0009A687B681B6842F480729A603EE07B6853
:1042E0001B689A687B681B6822F480729A6035E0CC
:1042F000FB685B08FB60FB681F4A934208D87B6839
:104300001B689A687B681B6822F440729A6025E0FB
:10431000FB681A4A93420AD87B681B689B6823F49F
:1043200040727B681B6842F480729A6016E0FB68FA
:10433000134A93420AD87B681B689B6823F4407237
:104340007B681B6842F400729A6007E07B681B6818
:104350009A687B681B6842F440729A6000BF10370D
:10436000BD4680BD002002400021024000230240E3
:1043700000630258002D3101105E5F0020BCBE00BA
:1043800040787D0180B483B000AF78607B689B6823
:1043900003F00103012B01D1012300E000231846A3
:1043A0000C37BD465DF8047B7047000080B485B0D3
:1043B00000AFF860B9607A60FB689A68094B1340F7
:1043C000BA6802F480317A6802F080420A431343EB
:1043D00043F00042FB689A6000BF1437BD465DF8A9
:1043E000047B7047C0FFFE3F80B483B000AF7860AD
:1043F0007B689B6803F00043B3F1004F01D10123B8
:1044000000E0002318460C37BD465DF8047B70477A
:1044100080B483B000AF78607B689B6803F00403CE
:10442000042B01D1012300E0002318460C37BD46C0
:104430005DF8047B7047000080B586B000AFF8607F
:10444000B9607A6000233B61FB6893F85030012B20
:1044500001D102234CE0FB68012283F85020F86868
:10446000FFF790FD0346FB75FB7D002B35D1FB6804
:104470005A6D214B134043F00202FB685A65FB68FA
:104480001B687A68B9681846FFF790FF14E03B692B
:1044900001333B613B69194A93420DD3FB685B6D65
:1044A00023F0120343F01002FB685A65FB680022F8
:1044B00083F8502001231BE0FB681B681846FFF7B8
:1044C00093FF0346002BE2D1FB685B6D23F00303EF
:1044D00043F00102FB685A6505E0FB685B6D43F041
:1044E0001002FB685A65FB68002283F85020FB7DB0
:1044F00018461837BD4680BDFDEEFFFF00F8C32506
:1045000090B59FB000AF78603960002387F87730AE
:104510007B6893F85030012B01D10223BEE07B6809
:10452000012283F850200023FB6500233B667B6853
:104530001B685C4A934202D15B4BBB6001E00023E5
:10454000BB60BB68002B0BD17B685B6D43F0200226
:104550007B685A657B68002283F8502001239DE028
:10456000BB681846FFF754FF38677B681B6818461E
:10457000FFF74EFF0346002B7FD13B6F002B7CD112
:104580007B681B68474A934204D07B681B68464A95
:10459000934201D1454B00E0454BFB663B681B68ED
:1045A000002B39D0FB6E9B6823F440423B685B686C
:1045B0001A43FB6E9A607B681B683A4A934204D0A8
:1045C0007B681B68384A93420ED13648FFF7DAFE03
:1045D00004463548FFF7D6FE03462343002B0CBFA5
:1045E00001230023DBB208E03248FFF7CBFE03468D
:1045F000002B0CBF01230023DBB2002B47D0FB6E46
:104600009A682D4B13403A6811683A6892680A43D9
:104610001A43FB6E9A603AE0FB6E9B6823F44042BB
:10462000FB6E9A607B681B681E4A934204D07B68CD
:104630001B681D4A93420ED11A48FFF7A3FE044699
:104640001948FFF79FFE03462343002B0CBF0123AD
:104650000023DBB208E01748FFF794FE0346002B67
:104660000CBF01230023DBB2002B10D0FB6E9A6835
:10467000114B1340FA6E936009E07B685B6D43F069
:1046800020027B685A65012387F8773000E000BF7D
:104690007B68002283F8502097F8773018467C37E3
:1046A000BD4690BD00200240002102400023024090
:1046B0000063025800600258E0F0FFFF80B485B04C
:1046C00000AF78607B6803F00703FB600B4BDB688F
:1046D000BB60BA684FF6FF031340BB60FB681A0269
:1046E000BB681A43064B1343BB60044ABB68D360E4
:1046F00000BF1437BD465DF8047B704700ED00E055
:104700000000FA0580B400AF044BDB681B0A03F01D
:1047100007031846BD465DF8047B704700ED00E0D6
:1047200080B483B000AF0346FB80B7F90630002B9E
:104730000BDBFB8803F01F020749B7F906305B0962
:10474000012000FA02F241F8232000BF0C37BD46D9
:104750005DF8047B704700BF00E100E080B483B0E7
:1047600000AF03463960FB80B7F90630002B0ADB47
:104770003B68DAB20C49B7F906301201D2B20B44E9
:1047800083F800230AE03B68DAB20849FB8803F0AB
:104790000F03043B1201D2B20B441A7600BF0C3750
:1047A000BD465DF8047B704700E100E000ED00E0ED
:1047B00080B489B000AFF860B9607A60FB6803F03C
:1047C0000703FB61FB69C3F10703042B28BF042324
:1047D000BB61FB690433062B02D9FB69033B00E094
:1047E00000237B614FF0FF32BB6902FA03F3DA4327
:1047F000BB681A407B699A404FF0FF317B6901FA30
:1048000003F3D9437B680B40134318462437BD4656
:104810005DF8047B7047000080B582B000AF78601F
:104820007B68013BB3F1807F01D301230FE00A4A8B
:104830007B68013B53600F214FF0FF30FFF78EFF85
:10484000054B00229A60044B07221A600023184689
:104850000837BD4680BD00BF10E000E080B582B0E3
:1048600000AF78607868FFF729FF00BF0837BD46C2
:1048700080BD80B586B000AF0346B9607A60FB8129
:10488000FFF740FF78617A68B9687869FFF790FFB1
:104890000246B7F90E3011461846FFF75FFF00BF1A
:1048A0001837BD4680BD80B582B000AF0346FB809F
:1048B000B7F906301846FFF733FF00BF0837BD468B
:1048C00080BD80B582B000AF78607868FFF7A4FF44
:1048D000034618460837BD4680BD000080B400AFCF
:1048E000BFF35F8F00BF074B5B6A064A23F4803338
:1048F0005362054B00225A6000BFBD465DF8047B41
:10490000704700BF00ED00E090ED00E080B483B0A0
:1049100000AF78600B4A7B6843F0010353600A4B99
:104920005B6A094A43F480335362BFF34F8F00BF81
:10493000BFF36F8F00BF00BF0C37BD465DF8047B2F
:10494000704700BF90ED00E000ED00E080B483B060
:1049500000AF78607B685A781B4B9A601A4B1B69D2
:10496000194A23F001031361174A7B685B68D3601F
:104970007B681B7B1A077B68DB7A1B061A437B6804
:104980009B7ADB041A437B685B7B9B041A437B683E
:104990009B7B5B041A437B68DB7B1B041A437B68AD
:1049A0005B7A1B021A437B681B7A5B0013437A68AD
:1049B00012781146044A0B43136100BF0C37BD4601
:1049C0005DF8047B704700BF90ED00E080B582B0D9
:1049D00000AF78607B68002B01D1012314E07B6875
:1049E0001B79DBB2002B05D17B6800225A717868F5
:1049F000FDF762FA7B6802221A717B6800221A6155
:104A00007B6801221A71002318460837BD4680BD15
:104A100080B58AB000AFF860B9607A60002387F88B
:104A20002330FB68002B02D0BB68002B01D101238F
:104A30002AE1FB685B79012B01D1022324E1FB68A9
:104A400001225A71FB6802221A71BB681B68042B91
:104A50007AD1FEF739F8F8617B68002B3DD118E078
:104A6000FEF732F80246FB69D31A012B11D9FB6815
:104A70001B685A6B864B1340002B0AD0FB681B69DE
:104A800043F00802FB681A61FB6803221A710323D2
:104A9000FAE0FB681B685A6B7D4B1340002BDFD19B
:104AA000FB681B68BA6892691A6420E0FEF70CF88C
:104AB0000246FB69D31A012B0FD9FB681B685B6B9D
:104AC000002B0ADAFB681B6943F00802FB681A61D5
:104AD000FB6803221A710323D6E0FB681B685B6B3B
:104AE000002BE3DBFB681B68BA6892695A64FB68B9
:104AF0001B689A6C7B6803F0100340F2FF3101FAE7
:104B000003F3DB4302EA0301BB68DA697B6803F065
:104B100010039A40FB681B680A439A64FB681B6891
:104B2000DA6C7B6803F01003FF2101FA03F3DB4327
:104B300002EA0301BB681A6A7B6803F010039A401B
:104B4000FB681B680A43DA64BB681B69012B1DD133
:104B5000FB681B689B6BBB617B6803F010031F2223
:104B600002FA03F3DB43BA691340BB61BB685B69BC
:104B70007B617B6803F010037A6902FA03F3BA6978
:104B80001343BB61FB681B68BA699A63FB681B68C7
:104B9000DB6BBB617B6803F01003072202FA03F3AF
:104BA000DB43BA691340BB61BB68DB68012B02D1F0
:104BB00000237B620FE0BB68DB68022B02D101237C
:104BC0007B6208E0BB689B68002B02D101237B62FB
:104BD00001E000237B62BB681A68BB689B681343D3
:104BE0007A6A13437B617B6803F010037A6902FAE7
:104BF00003F3BA691343BB61FB681B68BA69DA63E4
:104C0000FB681B6819687B6803F010034FF480424F
:104C100002FA03F3DA43FB681B680A401A60FB6878
:104C20001B681B68BB617B6803F0100340F6FE72D3
:104C300002FA03F3DB43BA691340BB61BB685B68EC
:104C40007B617B6803F010037A6902FA03F3BA69A7
:104C50001343BB61FB681B68BA691A60FB681B6879
:104C600019687B6803F01003C02202FA03F3DA43E9
:104C7000FB681B680A401A60FB6801221A71FB6816
:104C800000225A7197F8233018462837BD4680BD58
:104C90000080002080B586B000AF7860FDF714FF7B
:104CA00038617B68002B01D1012316E37B681B6808
:104CB000664A93424AD07B681B68654A934245D056
:104CC0007B681B68634A934240D07B681B68624ADA
:104CD00093423BD07B681B68604A934236D07B6826
:104CE0001B685F4A934231D07B681B685D4A9342E0
:104CF0002CD07B681B685C4A934227D07B681B687A
:104D00005A4A934222D07B681B68594A93421DD06D
:104D10007B681B68574A934218D07B681B68564AC9
:104D2000934213D07B681B68544A93420ED07B6831
:104D30001B68534A934209D07B681B68514A9342CF
:104D400004D07B681B68504A934201D1012300E0E4
:104D50000023002B00F03B817B68022283F8352082
:104D60007B68002283F834207B681B68374A9342B3
:104D70004AD07B681B68364A934245D07B681B68E3
:104D8000344A934240D07B681B68334A93423BD0FD
:104D90007B681B68314A934236D07B681B68304A77
:104DA000934231D07B681B682E4A93422CD07B689B
:104DB0001B682D4A934227D07B681B682B4A93427D
:104DC00022D07B681B682A4A93421DD07B681B68EF
:104DD000284A934218D07B681B68274A934213D015
:104DE0007B681B68254A93420ED07B681B68244A67
:104DF000934209D07B681B68224A934204D07B68A7
:104E00001B68214A934208D17B681B681A687B683B
:104E10001B6822F001021A6007E07B681B681A68B1
:104E20007B681B6822F001021A602FE0FDF74CFE40
:104E300002463B69D31A052B28D97B6820225A6584
:104E40007B68032283F83520012346E210000240EC
:104E5000280002404000024058000240700002401A
:104E600088000240A0000240B80002401004024046
:104E700028040240400402405804024070040240EA
:104E800088040240A0040240B80402407B681B680A
:104E90001B6803F00103002BC8D17B681B681B68EB
:104EA0007B617A69834B13407B617B689A687B687E
:104EB000DB681A437B681B691A437B685B691A438A
:104EC0007B689B691A437B68DB691A437B681B6AB2
:104ED00013437A6913437B617B685B6A042B07D1B8
:104EE0007B68DA6A7B681B6B13437A6913437B61C7
:104EF000714B1A68714B1340B3F1005F28D37B6884
:104F00005B68282B03D97B685B682E2B17D97B68DD
:104F10005B683E2B03D97B685B68422B0FD97B68AB
:104F20005B68462B03D97B685B68482B07D97B6895
:104F30005B684E2B05D97B685B68522B01D8012337
:104F400000E00023002B03D07B6943F480137B61D6
:104F50007B681B687A691A607B681B685B697B6188
:104F60007B6923F007037B617B685B6A7A69134383
:104F70007B617B685B6A042B17D17B689B6A7A69CB
:104F800013437B617B68DB6A002B0ED0786802F0EC
:104F9000ADFC0346002B08D07B6840225A657B6835
:104FA000012283F83520012397E17B681B687A6929
:104FB0005A61786802F0E8FB0346BB607B68DB6DF2
:104FC00003F01F033F229A40BB689A60CDE07B68E4
:104FD0001B683B4A934222D07B681B68394A934244
:104FE0001DD07B681B68384A934218D07B681B68C9
:104FF000364A934213D07B681B68354A93420ED0E1
:105000007B681B68334A934209D07B681B68324A2D
:10501000934204D07B681B68304A934201D101233C
:1050200000E00023002B00F097807B681B68244A77
:10503000934221D07B681B68224A93421CD07B6834
:105040001B68214A934217D07B681B681F4A934212
:1050500012D07B681B681E4A93420DD07B681B6888
:105060001C4A934208D07B681B681B4A934203D0BA
:105070007B681B68194A93427B68022283F83520BB
:105080007B68002283F834207B681B681B687B6187
:105090007A69134B13407B617B689B68402B21D05E
:1050A0007B689B68802B02D14FF480431BE0002378
:1050B00019E000BF3F8010FE0010005C0000FFFF01
:1050C000085402581C540258305402584454025890
:1050D000585402586C540258805402589454025840
:1050E0000F00FEFF10237A68D268D2081A437B684B
:1050F0001B69DB081A437B685B69DB081A437B6822
:105100009B69DB081A437B68DB69DB081A437B6811
:105110001B6A1B0913437A6913437B617B681B6815
:105120007A691A607B681B681A466E4B13446E4A94
:10513000A2FB03231B099A007B68DA65786802F0FA
:1051400023FB0346FB607B68DB6D03F01F0301223A
:105150009A40FB685A6008E07B6840225A657B6889
:10516000032283F835200123B7E07B681B685F4A80
:10517000934272D07B681B685D4A93426DD07B6816
:105180001B685C4A934268D07B681B685A4A93420A
:1051900063D07B681B68594A93425ED07B681B686A
:1051A000574A934259D07B681B68564A934254D061
:1051B0007B681B68544A93424FD07B681B68534AF4
:1051C00093424AD07B681B68514A934245D07B6822
:1051D0001B68504A934240D07B681B684E4A9342FA
:1051E0003BD07B681B684D4A934236D07B681B6876
:1051F0004B4A934231D07B681B684A4A93422CD079
:105200007B681B68484A934227D07B681B68474AE3
:10521000934222D07B681B68454A93421DD07B682D
:105220001B68444A934218D07B681B68424A9342E9
:1052300013D07B681B68414A93420ED07B681B6881
:105240003F4A934209D07B681B683E4A934204D090
:105250007B681B683C4A934201D1012300E0002394
:10526000002B32D0786802F0BDFB7B689B68802BF6
:1052700002D17B6800225A607B685A687B681B6E8B
:10528000D2B21A607B685B6E7A68926E5A607B68F5
:105290005B68002B10D07B685B68082B0CD87868A3
:1052A00002F03AFC7B68DB6E00221A607B681B6FA1
:1052B0007A68526F5A6008E07B680022DA667B6881
:1052C00000221A677B6800225A677B6800225A65B1
:1052D0007B68012283F83520002318461837BD4625
:1052E00080BD00BFF8ABFDA7CDCCCCCC10000240F8
:1052F0002800024040000240580002407000024076
:1053000088000240A0000240B800024010040240A1
:105310002804024040040240580402407004024045
:1053200088040240A0040240B80402400854025815
:105330001C540258305402584454025858540258CD
:105340006C540258805402589454025880B586B068
:1053500000AFF860B9607A603B600023FB75FB68C2
:10536000002B01D10123ECE0FB6893F83430012BD2
:1053700001D10223E5E0FB68012283F83420FB68B9
:1053800093F83530DBB2012B40F0D080FB6802226D
:1053900083F83520FB6800225A65FB681B686B4A5E
:1053A00093424AD0FB681B68694A934245D0FB6828
:1053B0001B68684A934240D0FB681B68664A934268
:1053C0003BD0FB681B68654A934236D0FB681B687C
:1053D000634A934231D0FB681B68624A93422CD0E7
:1053E000FB681B68604A934227D0FB681B685F4AD2
:1053F000934222D0FB681B685D4A93421DD0FB6834
:105400001B685C4A934218D0FB681B685A4A934257
:1054100013D0FB681B68594A93420ED0FB681B6887
:10542000574A934209D0FB681B68564A934204D0FE
:10543000FB681B68544A934208D1FB681B681A68D2
:10544000FB681B6822F001021A6007E0FB681B681A
:105450001A68FB681B6822F001021A603B687A68D0
:10546000B968F86801F0E4FFFB681B68374A9342AB
:105470004AD0FB681B68364A934245D0FB681B68DC
:10548000344A934240D0FB681B68334A93423BD076
:10549000FB681B68314A934236D0FB681B68304A70
:1054A000934231D0FB681B682E4A93422CD0FB6894
:1054B0001B682D4A934227D0FB681B682B4A9342F6
:1054C00022D0FB681B682A4A93421DD0FB681B68E8
:1054D000284A934218D0FB681B68274A934213D08E
:1054E000FB681B68254A93420ED0FB681B68244A60
:1054F000934209D0FB681B68224A934204D0FB68A0
:105500001B68214A934208D1FB681B681A68FB6834
:105510001B6842F001021A6012E0FB681B681A68FF
:10552000FB681B6842F001021A6009E0FB684FF457
:1055300000625A65FB68002283F834200123FB7562
:10554000FB7D18461837BD4680BD00BF10000240E5
:105550002800024040000240580002407000024013
:1055600088000240A0000240B8000240100402403F
:1055700028040240400402405804024070040240E3
:1055800088040240A0040240B804024080B586B0FE
:1055900000AFF860B9607A603B600023FB75FB6880
:1055A000002B01D1012326E2FB6893F83430012B54
:1055B00001D102231FE2FB68012283F83420FB683B
:1055C00093F83530DBB2012B40F00A82FB680222EF
:1055D00083F83520FB6800225A65FB681B68684A1F
:1055E00093424AD0FB681B68664A934245D0FB68E9
:1055F0001B68654A934240D0FB681B68634A93422C
:105600003BD0FB681B68624A934236D0FB681B683C
:10561000604A934231D0FB681B685F4A93422CD0AA
:10562000FB681B685D4A934227D0FB681B685C4A95
:10563000934222D0FB681B685A4A93421DD0FB68F4
:105640001B68594A934218D0FB681B68574A93421B
:1056500013D0FB681B68564A93420ED0FB681B6848
:10566000544A934209D0FB681B68534A934204D0C2
:10567000FB681B68514A934208D1FB681B681A6893
:10568000FB681B6822F001021A6007E0FB681B68D8
:105690001A68FB681B6822F001021A603B687A688E
:1056A000B968F86801F0C4FEFB681B68344A93428D
:1056B0004AD0FB681B68334A934245D0FB681B689D
:1056C000314A934240D0FB681B68304A93423BD03A
:1056D000FB681B682E4A934236D0FB681B682D4A34
:1056E000934231D0FB681B682B4A93422CD0FB6855
:1056F0001B682A4A934227D0FB681B68284A9342BA
:1057000022D0FB681B68274A93421DD0FB681B68A8
:10571000254A934218D0FB681B68244A934213D051
:10572000FB681B68224A93420ED0FB681B68214A23
:10573000934209D0FB681B681F4A934204D0FB6860
:105740001B681E4A934201D1012300E00023002B75
:1057500036D0FB681B681B6823F01E02FB681B68C1
:1057600042F016021A60FB681B6C002B3ED0FB68EF
:105770001B681A68FB681B6842F008021A6035E073
:105780001000024028000240400002405800024041
:105790007000024088000240A0000240B8000240B1
:1057A0001004024028040240400402405804024011
:1057B0007004024088040240A0040240B804024081
:1057C000FB681B681B6823F00E02FB681B6842F035
:1057D0000A021A60FB681B6C002B07D0FB681B6871
:1057E0001A68FB681B6842F004021A60FB681B68B9
:1057F000834A934272D0FB681B68824A93426DD001
:10580000FB681B68804A934268D0FB681B687F4A2C
:10581000934263D0FB681B687D4A93425ED0FB686D
:105820001B687C4A934259D0FB681B687A4A9342B2
:1058300054D0FB681B68794A93424FD0FB681B68C1
:10584000774A93424AD0FB681B68764A934245D018
:10585000FB681B68744A934240D0FB681B68734A1C
:1058600093423BD0FB681B68714A934236D0FB6879
:105870001B68704A934231D0FB681B686E4A9342A2
:105880002CD0FB681B686D4A934227D0FB681B68CD
:105890006B4A934222D0FB681B686A4A93421DD030
:1058A000FB681B68684A934218D0FB681B68674A0C
:1058B000934213D0FB681B68654A93420ED0FB6885
:1058C0001B68644A934209D0FB681B68624A934292
:1058D00004D0FB681B68614A934201D1012300E0B8
:1058E0000023002B1AD0FB681B6E1B6803F4803367
:1058F000002B07D0FB681B6E1A68FB681B6E42F416
:1059000080721A60FB68DB6E002B07D0FB68DB6ED1
:105910001A68FB68DB6E42F480721A60FB681B68D1
:10592000374A93424AD0FB681B68364A934245D0B7
:10593000FB681B68344A934240D0FB681B68334ABB
:1059400093423BD0FB681B68314A934236D0FB68D8
:105950001B68304A934231D0FB681B682E4A934241
:105960002CD0FB681B682D4A934227D0FB681B682C
:105970002B4A934222D0FB681B682A4A93421DD0CF
:10598000FB681B68284A934218D0FB681B68274AAB
:10599000934213D0FB681B68254A93420ED0FB68E4
:1059A0001B68244A934209D0FB681B68224A934231
:1059B00004D0FB681B68214A934208D1FB681B682E
:1059C0001A68FB681B6842F001021A6012E0FB686B
:1059D0001B681A68FB681B6842F001021A6009E044
:1059E000FB684FF400625A65FB68002283F834209C
:1059F0000123FB75FB7D18461837BD4680BD00BFEF
:105A000010000240280002404000024058000240BE
:105A10007000024088000240A0000240B80002402E
:105A2000100402402804024040040240580402408E
:105A30007004024088040240A0040240B8040240FE
:105A4000085402581C540258305402584454025806
:105A5000585402586C5402588054025894540258B6
:105A600080B586B000AF7860FDF72EF838617B68AE
:105A7000002B01D10123DCE27B6893F83530DBB2E7
:105A8000022B08D07B6880225A657B68002283F84D
:105A900034200123CDE27B681B68764A93424AD0CA
:105AA0007B681B68744A934245D07B681B68734AC5
:105AB000934240D07B681B68714A93423BD07B681D
:105AC0001B68704A934236D07B681B686E4A9342CB
:105AD00031D07B681B686D4A93422CD07B681B6871
